:020000040000FA
:060000009EEF06F0120065
:020006001200E6
:060008000EEF00F01200F3
:02000E000100EF
:0C001000580D0000000100009D000000E1
:04001C00DACFE4FF54
:10002000E2CFDAFFE9CFE4FFEACFE4FFF6CFE4FF67
:10003000F7CFE4FFF5CFE4FFF3CFE4FFF4CFE4FF25
:10004000FACFE4FF00EE00F0140EE80403E3EECF75
:10005000E4FFFBD700EE14F0080EE80403E3EECF54
:10006000E4FFFBD7E652F2A42AD0D59E3EDA010186
:1000700097510CE18B8C9D969E969D8C9E9C40EC9E
:1000800004F0C2840101010E976F12D0970510E1B0
:10009000976B9D9C086B9E9C9D869E968B9C955114
:1000A00005E13F0EC96E010E956F02D0BF0EC96EFD
:1000B000C20ED76EF70ED66EF294D58E48D09DAC98
:1000C00007D09EAC04D09E9C80D8DADBC2843FD09F
:1000D0009DA63DD09EA63BD09E960101960517E1B8
:1000E000080E085D0AE20851082BEA6A000FE96E63
:1000F000010EEA22EF50C96E09D08B8C966B01017C
:10010000A76B8B9C0101086BBF0EC96E20D001014B
:10011000A75104E1C96A010EA76F19D0A76B0101AD
:100120000851082BEA6A000FE96E010EEA22C9CFD6
:10013000EFFF080E085D02E29E8609D08B8C086BEB
:10014000966B0101A76B5FDB8B9CBF0EC96EE552FE
:1001500000EE1BF0080EE80403E3E5CFEDFFFBD74C
:1001600000EE13F0140EE80403E3E5CFEDFFFBD738
:10017000E5CFFAFFE5CFF4FFE5CFF3FFE5CFF5FFDD
:10018000E5CFF7FFE5CFF6FFE5CFEAFFE5CFE9FFE3
:10019000E5CFDAFF11009268956A900E946EC00E5A
:1001A000C76E200EC66E410EC26E850EC16E2EDB6E
:1001B000F28EF28AF294F28C060ED56EC20ED76ED3
:1001C000F70ED66ED58EFFD71200D9CFE6FFE1CF5E
:1001D000D9FF040EE126DE6ADE6ADE6ADD6ADD52E0
:1001E000DD52C3CFA8F1C4CFA9F1010198514FE16D
:1001F000010E986FA8C106F0A9C107F04BEC04F0FE
:1002000005C018F006C019F007C01AF008C01BF0AE
:100210000A6A0B6A160E0C6E430E0D6E18C005F0BE
:1002200019C006F01AC007F01BC008F0B3EC04F0C8
:1002300005C014F006C015F007C016F008C017F08E
:100240000A6AC00E0B6E7F0E0C6E440E0D6E14C04B
:1002500005F015C006F016C007F017C008F060ECF6
:1002600004F005C099F106C09AF107C09BF108C0DF
:100270009CF199C1E6FF9AC1E6FF9BC1E6FF9CC1D4
:10028000E6FF89D8E552E552E552E5527AD0A8C199
:1002900006F0A9C107F04BEC04F005C018F006C049
:1002A00019F007C01AF008C01BF00A6A0B6A160E94
:1002B0000C6E430E0D6E18C005F019C006F01AC082
:1002C00007F01BC008F0B3EC04F005C014F006C042
:1002D00015F007C016F008C017F00A6AC00E0B6EC2
:1002E0007F0E0C6E440E0D6E14C005F015C006F0A6
:1002F00016C007F017C008F060EC04F005C0DEFF80
:1003000006C0DEFF07C0DEFF08C0DDFFDD52DD52A4
:10031000D9CFE9FFDACFEAFFEECF14F0EECF15F038
:10032000EECF16F0EFCF17F099C10AF09AC10BF09B
:100330009BC10CF09CC10DF014C005F015C006F077
:1003400016C007F017C008F047EC05F0010A19E0E5
:10035000DFCF99F1010EDBCF9AF1020EDBCF9BF1DB
:10036000030EDBCF9CF1C1D899C1E6FF9AC1E6FF2D
:100370009BC1E6FF9CC1E6FF0ED8E552E552E5526F
:10038000E552040EE15C02E2E16AE552E16EE552FB
:10039000E7CFD9FF1200D9CFE6FFE1CFD9FF1A0E80
:1003A000E126DF6A010EDB6AD950020FE96EDACF6F
:1003B000EAFF540EEE6E450EEE6E4D0EEE6E500ED2
:1003C000EE6E450EEE6E520EEE6E410EEE6E540E59
:1003D000EE6E550EEE6E520EEE6E450EEE6E200E69
:1003E000EE6E490EEE6E530EEE6EEE6AD950110FA0
:1003F000E96EDACFEAFF200EEE6E430EEE6E650E6A
:10040000EE6E6C0EEE6E730EEE6E690EEE6E750E87
:10041000EE6E730EEE6EEE6AFB0EDBCF05F0FC0E99
:10042000DBCF06F0FD0EDBCF07F0FE0EDBCF08F0D2
:1004300020EC05F00750DF6ED950020F146EDACFB2
:1004400015F0010EDB500F011424E96E000E15208B
:10045000EA6EEF5013E0D950020F146EDACF15F0A8
:10046000010EDBCFF3FFDB2AF3501424E96E000EFC
:100470001520EA6EEF508C6EEAD9DED7C40EE66E18
:10048000B3D8E552DFCFE6FFE66A3DD8E552E55244
:10049000010EDB6AD950110F146EDACF15F0010E80
:1004A000DB500F011424E96E000E1520EA6EEF50A8
:1004B00012E0D950110F146EDACF15F0010EDB5097
:1004C0001424E96E000E1520EA6EEF508C6EBFD931
:1004D000010EDB2ADFD71A0EE15C02E2E16AE55287
:1004E000E16EE552E7CFD9FF1200010E8C6EA9D95B
:1004F000CD6AF90ECF6E980ECE6EBBD9800E8C6E83
:10050000A0D92EEF04F0D9CFE6FFE1CFD9FF040E3A
:10051000E126030EDB68D950FD0FE96EFF0EDA20ED
:10052000EA6EEE50ED103AE0FD0EDBCF18F0FE0E55
:10053000DBCF19F00A0E0B6E0C6A18C006F019C05A
:1005400007F078EC06F002C018F003C019F0D9CF1C
:1005500014F0DACF15F0030EDB2ADBCF16F0176AA2
:1005600016BE176814501624E96E15501720EA6E4F
:1005700018C0EFFFD950FD0FE96EFF0EDA20EA6ECA
:100580000A0E0B6E0C6AEECF06F0EDCF07F078EC9A
:1005900006F006C0EEFF07C0EDFFBDD7030EDB502F
:1005A000FF0818E0D9CF14F0DACF15F0030EDBCF37
:1005B000F3FFDB06F350166E176A16BE1768145069
:1005C0001624E96E15501720EA6EEF50300F8C6E2E
:1005D0003ED9E4D7040EE15C02E2E16AE552E16E45
:1005E000E552E7CFD9FF1200D9CFE6FFE1CFD9FF1F
:1005F000FE0EDB508C6E25D931D9E552E7CFD9FFFD
:100600001200D9CFE6FFE1CFD9FF0A0EE126020E94
:10061000DF6ED950010FE96EDACFEAFF540EEE6EAD
:10062000490EEE6E4D0EEE6E450EEE6E200EEE6E27
:100630003A0EEE6E200EEE6EEE6A090EDB6A800E4A
:10064000E66ED2DFE552D950010F146EDACF15F005
:10065000090EDB500F011424E96E000E1520EA6E1E
:10066000EF5013E0D950010F146EDACF15F0090ED8
:10067000DBCFF3FFDB2AF3501424E96E000E1520C4
:10068000EA6EEF508C6EE3D8DED7DFCF14F014346F
:1006900025E2DFCFE9FFEA6AE9BEEA68000EE92653
:1006A000010EEA22EF50F00BE8380F0B300F8C6E82
:1006B000CED8DFCFE9FFEA6AE9BEEA68000EE92694
:1006C000010EEA22EF500F0B300F8C6EC0D8DF50B6
:1006D00003E03A0E8C6EBBD8DF06D7D70A0EE15C7A
:1006E00002E2E16AE552E16EE552E7CFD9FF12007E
:1006F000D9CFE6FFE1CFD9FF050EE12601010505BF
:10070000DF6E010EDB6A020E03C1DBFF030E04C1C4
:10071000DBFF040E06C1DBFFC00EE66E65DFE552AF
:10072000DF50070801E2DF6AC00EE66E5DDFE552CA
:10073000DF50140DF3CF14F0F4CF15F0090E14268A
:10074000010E1522010EDB500F011424E96E000E7C
:100750001520EA6EEF5017E0DF50140DF3CF14F0C0
:10076000F4CF15F0090E1426010E1522010EDB50F0
:100770001424E96E000E1520EA6EEF508C6E67D8D7
:10078000010EDB2AD5D7020EDB50F00BE8380F0B39
:10079000300F8C6E5CD8020EDB500F0B300F8C6E5E
:1007A00056D82F0E8C6E53D8030EDB50F00BE83862
:1007B0000F0B300F8C6E4BD8030EDB500F0B300F2E
:1007C0008C6E45D82F0E8C6E42D8320E8C6E3FD870
:1007D000300E8C6E3CD8040EDB50F00BE8380F0B5B
:1007E000300F8C6E34D8040EDB500F0B300F8C6E34
:1007F0002ED8050EE15C02E2E16AE552E16EE552B7
:10080000E7CFD9FF1200FDDE78EF03F0380E8C6ED3
:1008100018D809D8010E8C6E14D805D80C0E8C6E21
:1008200010D813EF04F0200ECD6E0B0ECF6EDC0E41
:10083000CE6E39EF04F0CD6ACF68FD0ECE6E39EF83
:1008400004F08B908B928B84F6DF8B9412008B805C
:100850008B928B84F0DF8B942EEF04F08B908B8245
:10086000958E8B94E8DF8B8483BEFBD78B94959E0B
:1008700012009E90CD809EA0FED79E90CD9012003B
:10088000CD6ACF68EC0ECE6E9E90CD809EA0FED736
:060890009E90CD901200C5
:0A0896000F9E08D00F9E07AE05D09C
:1008A000066C071EE86A07220F8E07C001F006C01B
:1008B00000F0136A126A8E0E026E036ABFEF05F033
:1008C0000F6AFBEC05F013EC06F00FB6A3EF05F092
:1008D0000FA205D00FBAA3EF05F0AAEF05F00FBAEB
:1008E000B6EF05F00FA005D00FB8A3EF05F0B6EFF7
:1008F00005F00FB8AAEF05F0036A7F0E0824026E18
:10090000E86A03220D50025EE86A035A1A0E106E5E
:10091000086A126A136A006A016A0A50055E0B507F
:10092000065A0C50075A000E085A09E70A500526C5
:100930000B5006220C500722000E082201D0128A0A
:10094000D8900536063607360836D8901236133654
:1009500000360136102EE1D7075006100510D8A436
:10096000128ABFEF05F00F6AFBEC05F013EC06F0FE
:100970000FB6A3EF05F00FA205D00FB8A3EF05F057
:10098000AAEF05F00FAA05D00FB0A3EF05F0AAEF6C
:1009900005F00FB002D00FA802D0B6EF05F0036A41
:1009A0000D500824026EE86A03227E0E025EE86A99
:1009B000035A126A136A006A016A0C500702F4CFE4
:1009C00001F0F3CF00F00B500702F3501326F45060
:1009D0000022000E01220C500602F3501326F450A0
:1009E0000022000E01220A500702F3501226F45092
:1009F0001322000E002201220B500602F350122691
:100A0000F4501322000E002201220C500502F35074
:100A10001226F4501322000E002201220A50060270
:100A2000F4501226000E1322002201220B50050260
:100A3000F4501226000E132200220122BFEF05F00F
:100A40000F6AFBEC05F00FB62AEF05F00FA20AD0F3
:100A50000FB403D07F0E076E19D0800E076E16D02C
:100A6000076A14D00FB0FCD7870E0860F1D77E0E4E
:100A70000864F6D7860E085C04E0D8900732082A8E
:100A8000F9D70FA403D0076C07AEEAD712004EECDB
:100A900005F00FB6000C0FB0010C000C0F6AFBEC58
:100AA00005F013EC06F00FB612000FAE08D00FA041
:100AB00004D00FA802D00F8012000F9012000D502A
:100AC000085C0BE10C50075C08E10B50065C05E18B
:100AD0000A50055C02E10F801200D8A002D00F8EF0
:100AE00010D008500DC008F00D6E07500CC007F074
:100AF0000C6E06500BC006F00B6E05500AC005F0D8
:100B00000A6E0D50085C10E0FF0F09E00F900FB463
:100B100003D00FAE0F8412000FAE0F9412000D2AF7
:100B2000D8900C320B320A320A50055E0B50065A2E
:100B30000C50075A07BEEAD7D89005360636073656
:100B4000082EF8D7C8D77F0E086EFF0E076E066E08
:100B5000056E12007F0E0FBEFF0E086E02D07F0ED4
:100B6000086E800E076E066A056AF3D70FAE04D0D2
:100B7000800E086E076AF7D7086A076AF4D7015033
:100B8000001013101210F8E003BEF0D701BE0CD015
:100B900002500310EBE0D8901236133600360136BF
:100BA0000206D8A00306F2D70350D4E10228D2E00F
:100BB00012AE11D07F0E121402E113A00CD0132A32
:100BC000E86A0022012207E3D880013200321332A2
:100BD000022A0228BFE00250C9E013C005F000C09D
:100BE00006F00134076E0230086E0732089E0FBE11
:100BF000088EA9EF05F00736083602E30F840F7E52
:100C000006E10F80086A076A066A056A120008286A
:100C100003E0D88007321200D890073202E10F8239
:100C200012000F8612000C360D3602E30F8C0F7E79
:100C300006E10F880D6A0C6A0B6A0A6A12000D2819
:100C400003E0D8800C321200D8900C32EAE10F8A0F
:020C5000120090
:0E0C52000E0EF66E000EF76E000EF86E01012B
:100C60000900F550A26F0900F550A36F03E1A267D8
:100C700001D03DD00900F5509D6F0900F5509E6FE1
:100C80000900F5509F6F09000900F550E96E090051
:100C9000F550EA6E090009000900F550A06F09003F
:100CA000F550A16F09000900F6CFA4F1F7CFA5F127
:100CB000F8CFA6F19DC1F6FF9EC1F7FF9FC1F8FFD7
:100CC0000101A05302E1A15307E00900F550EE6EC7
:100CD000A007F8E2A107F9D7A4C1F6FFA5C1F7FF65
:100CE000A6C1F8FF0101A207000EA35BBFD7120047
:100CF000036A026A100EE76ED8900636073602368F
:100D000003360B50025C0C50035805E30B50025E97
:0C0D10000C50035A062AE72EF0D7120000
:040D1C00000EF36E64
:100D200000EE00F0060E01D81200EA6002D0EE6A72
:0C0D3000FCD7F350E9601200EE6AFCD71B
:040D3C0015EE00F0C0
:100D400025EE00F0F86A0F9C29EC06F003EC00F0A9
:080D5000CBEC00F0FBD7120010
:080D5800505923311207240059
:100D60000053554E2C000000000000000000000061
:100D700000000000004D4F4E2C000000000000005D
:100D80000000000000000000005455452C00000049
:100D90000000000000000000000000000057454473
:100DA0002C00000000000000000000000000000017
:100DB000005448552C000000000000000000000016
:100DC00000000000004652492C0000000000000016
:100DD0000000000000000000005341542C000000FF
:100DE0000000000000000000000000000000010002
:050DF0000000000000FE
:020000040030CA
:010003000EEE
:00000001FF
